{
  "contractName": "Controlled",
  "abi": [
    {
      "constant": true,
      "inputs": [],
      "name": "controller",
      "outputs": [
        {
          "name": "",
          "type": "address"
        }
      ],
      "payable": false,
      "stateMutability": "view",
      "type": "function"
    },
    {
      "inputs": [],
      "payable": false,
      "stateMutability": "nonpayable",
      "type": "constructor"
    },
    {
      "constant": false,
      "inputs": [
        {
          "name": "_newController",
          "type": "address"
        }
      ],
      "name": "changeController",
      "outputs": [],
      "payable": false,
      "stateMutability": "nonpayable",
      "type": "function"
    }
  ],
  "bytecode": "0x608060405234801561001057600080fd5b50336000806101000a81548173ffffffffffffffffffffffffffffffffffffffff021916908373ffffffffffffffffffffffffffffffffffffffff1602179055506101e8806100606000396000f3fe60806040526004361061004c576000357c0100000000000000000000000000000000000000000000000000000000900463ffffffff1680633cebb82314610051578063f77c4791146100a2575b600080fd5b34801561005d57600080fd5b506100a06004803603602081101561007457600080fd5b81019080803573ffffffffffffffffffffffffffffffffffffffff1690602001909291905050506100f9565b005b3480156100ae57600080fd5b506100b7610197565b604051808273ffffffffffffffffffffffffffffffffffffffff1673ffffffffffffffffffffffffffffffffffffffff16815260200191505060405180910390f35b6000809054906101000a900473ffffffffffffffffffffffffffffffffffffffff1673ffffffffffffffffffffffffffffffffffffffff163373ffffffffffffffffffffffffffffffffffffffff1614151561015457600080fd5b806000806101000a81548173ffffffffffffffffffffffffffffffffffffffff021916908373ffffffffffffffffffffffffffffffffffffffff16021790555050565b6000809054906101000a900473ffffffffffffffffffffffffffffffffffffffff168156fea165627a7a72305820a6da7b8bba97c3162da1fbc2a925d11b783b107cbf4e1fbba966416ecaf6906e0029",
  "source": "// ----------------------------------------------------------------------------\n// ERC Token Standard #20 Interface\n// https://github.com/ethereum/EIPs/blob/master/EIPS/eip-20-token-standard.md\n// ----------------------------------------------------------------------------\npragma solidity ^0.5.0;\n\nimport \"./SafeMath.sol\";\n\ncontract ERC20 {\n    function totalSupply() public view returns (uint);\n    function balanceOf(address tokenOwner) public view returns (uint balance);\n    function allowance(address tokenOwner, address spender) public view returns (uint remaining);\n    function transfer(address to, uint tokens) public returns (bool success);\n    function approve(address spender, uint tokens) public returns (bool success);\n    function transferFrom(address from, address to, uint tokens) public returns (bool success);\n    event Transfer(address indexed from, address indexed to, uint tokens);\n    event Approval(address indexed tokenOwner, address indexed spender, uint tokens);\n}\n\ncontract Controlled {\n    modifier onlyController { if (msg.sender != controller) revert(); _; }\n\n    address public controller;\n\n    constructor() public { controller = msg.sender;}\n\n    function changeController(address _newController) onlyController public {\n        controller = _newController;\n    }\n}\n\ncontract SwitchMainNet is Controlled {\n\n    using SafeMath for uint256;\n\n    address tracker_0x_address; // ContractA Address\n\n    mapping ( address => uint256 ) public balances;\n\n    constructor(address _address) public { tracker_0x_address = _address;}\n\n\n    function receiveApproval(address from, uint256 _amount, address _token, bytes memory _data) public{\n        require(tracker_0x_address == _token);\n        balances[from]=balances[from].add(_amount);\n        ERC20(_token).transferFrom(from, address(this), _amount);\n    }\n\n    function returnTokens() public {\n        require(ERC20(tracker_0x_address).balanceOf(address(this)).sub(balances[msg.sender])>=0);\n        require(ERC20(tracker_0x_address).transfer(msg.sender, balances[msg.sender]));\n        balances[msg.sender] = 0;\n    }\n\n    function transferAllTokens(address to) onlyController public {\n        ERC20(tracker_0x_address).transfer(to, ERC20(tracker_0x_address).balanceOf(address(this)));\n    }\n}",
  "sourcePath": "/Users/yves/nodeworkspace/truffle_switch2main/contracts/SwitchMainNet.sol",
  "compiler": {
    "name": "solc",
    "version": "0.5.0+commit.1d4f565a.Emscripten.clang"
  },
  "schemaVersion": "3.0.2",
  "updatedAt": "2019-03-12T06:18:38.293Z",
  "devdoc": {
    "methods": {}
  },
  "userdoc": {
    "methods": {}
  }
}